{
  "contractName": "YourContract",
  "abi": [
    {
      "inputs": [
        {
          "internalType": "address",
          "name": "_owner",
          "type": "address"
        }
      ],
      "stateMutability": "nonpayable",
      "type": "constructor"
    },
    {
      "anonymous": false,
      "inputs": [
        {
          "indexed": true,
          "internalType": "address",
          "name": "greetingSetter",
          "type": "address"
        },
        {
          "indexed": false,
          "internalType": "string",
          "name": "newGreeting",
          "type": "string"
        },
        {
          "indexed": false,
          "internalType": "bool",
          "name": "premium",
          "type": "bool"
        },
        {
          "indexed": false,
          "internalType": "uint256",
          "name": "value",
          "type": "uint256"
        }
      ],
      "name": "GreetingChange",
      "type": "event"
    },
    {
      "inputs": [],
      "name": "greeting",
      "outputs": [
        {
          "internalType": "string",
          "name": "",
          "type": "string"
        }
      ],
      "stateMutability": "view",
      "type": "function"
    },
    {
      "inputs": [],
      "name": "owner",
      "outputs": [
        {
          "internalType": "address",
          "name": "",
          "type": "address"
        }
      ],
      "stateMutability": "view",
      "type": "function"
    },
    {
      "inputs": [],
      "name": "premium",
      "outputs": [
        {
          "internalType": "bool",
          "name": "",
          "type": "bool"
        }
      ],
      "stateMutability": "view",
      "type": "function"
    },
    {
      "inputs": [
        {
          "internalType": "string",
          "name": "_newGreeting",
          "type": "string"
        }
      ],
      "name": "setGreeting",
      "outputs": [],
      "stateMutability": "payable",
      "type": "function"
    },
    {
      "inputs": [],
      "name": "totalCounter",
      "outputs": [
        {
          "internalType": "uint256",
          "name": "",
          "type": "uint256"
        }
      ],
      "stateMutability": "view",
      "type": "function"
    },
    {
      "inputs": [
        {
          "internalType": "address",
          "name": "",
          "type": "address"
        }
      ],
      "name": "userGreetingCounter",
      "outputs": [
        {
          "internalType": "uint256",
          "name": "",
          "type": "uint256"
        }
      ],
      "stateMutability": "view",
      "type": "function"
    },
    {
      "inputs": [],
      "name": "withdraw",
      "outputs": [],
      "stateMutability": "nonpayable",
      "type": "function"
    },
    {
      "stateMutability": "payable",
      "type": "receive"
    }
  ],
  "bytecode": "0x60a06040526040518060400160405280601c81526020017f4275696c64696e6720556e73746f707061626c652041707073212121000000008152505f908162000049919062000352565b505f60015f6101000a81548160ff0219169083151502179055505f60025534801562000073575f80fd5b50d3801562000080575f80fd5b50d280156200008d575f80fd5b5060405162001442380380620014428339818101604052810190620000b39190620004c8565b8073ffffffffffffffffffffffffffffffffffffffff1660808173ffffffffffffffffffffffffffffffffffffffff168152505050620004f8565b5f81519050919050565b7f4e487b71000000000000000000000000000000000000000000000000000000005f52604160045260245ffd5b7f4e487b71000000000000000000000000000000000000000000000000000000005f52602260045260245ffd5b5f60028204905060018216806200016a57607f821691505b60208210810362000180576200017f62000125565b5b50919050565b5f819050815f5260205f209050919050565b5f6020601f8301049050919050565b5f82821b905092915050565b5f60088302620001e47fffffffffffffffffffffffffffffffffffffffffffffffffffffffffffffffff82620001a7565b620001f08683620001a7565b95508019841693508086168417925050509392505050565b5f819050919050565b5f819050919050565b5f6200023a620002346200022e8462000208565b62000211565b62000208565b9050919050565b5f819050919050565b62000255836200021a565b6200026d620002648262000241565b848454620001b3565b825550505050565b5f90565b6200028362000275565b620002908184846200024a565b505050565b5b81811015620002b757620002ab5f8262000279565b60018101905062000296565b5050565b601f8211156200030657620002d08162000186565b620002db8462000198565b81016020851015620002eb578190505b62000303620002fa8562000198565b83018262000295565b50505b505050565b5f82821c905092915050565b5f620003285f19846008026200030b565b1980831691505092915050565b5f62000342838362000317565b9150826002028217905092915050565b6200035d82620000ee565b67ffffffffffffffff811115620003795762000378620000f8565b5b62000385825462000152565b62000392828285620002bb565b5f60209050601f831160018114620003c8575f8415620003b3578287015190505b620003bf858262000335565b8655506200042e565b601f198416620003d88662000186565b5f5b828110156200040157848901518255600182019150602085019450602081019050620003da565b868310156200042157848901516200041d601f89168262000317565b8355505b6001600288020188555050505b505050505050565b5f80fd5b5f74ffffffffffffffffffffffffffffffffffffffffff82169050919050565b62000465816200043a565b811462000470575f80fd5b50565b5f73ffffffffffffffffffffffffffffffffffffffff82169050919050565b5f6200049e8262000473565b9050919050565b5f81519050620004b5816200045a565b620004c08162000492565b905092915050565b5f60208284031215620004e057620004df62000436565b5b5f620004ef84828501620004a5565b91505092915050565b608051610f236200051f5f395f8181610226015281816102b5015261037f0152610f235ff3fe608060405260043610610073575f3560e01c8063a41368621161004d578063a413686214610130578063cea49c3c1461014c578063e0a73a93146101a0578063ef690cc0146101e25761007a565b80633ccfd60b1461007e5780638da5cb5b146100ac57806397feba9d146100ee5761007a565b3661007a57005b5f80fd5b348015610089575f80fd5b50d38015610095575f80fd5b50d280156100a1575f80fd5b506100aa610224565b005b3480156100b7575f80fd5b50d380156100c3575f80fd5b50d280156100cf575f80fd5b506100d861037d565b6040516100e591906106bb565b60405180910390f35b3480156100f9575f80fd5b50d38015610105575f80fd5b50d28015610111575f80fd5b5061011a6103a1565b60405161012791906106ec565b60405180910390f35b61014a60048036038101906101459190610852565b6103a7565b005b348015610157575f80fd5b50d38015610163575f80fd5b50d2801561016f575f80fd5b5061018a600480360381019061018591906108ee565b6104dd565b60405161019791906106ec565b60405180910390f35b3480156101ab575f80fd5b50d380156101b7575f80fd5b50d280156101c3575f80fd5b506101cc6104f2565b6040516101d99190610933565b60405180910390f35b3480156101ed575f80fd5b50d380156101f9575f80fd5b50d28015610205575f80fd5b5061020e610504565b60405161021b91906109c6565b60405180910390f35b7f000000000000000000000000000000000000000000000000000000000000000073ffffffffffffffffffffffffffffffffffffffff163373ffffffffffffffffffffffffffffffffffffffff16146102b2576040517f08c379a00000000000000000000000000000000000000000000000000000000081526004016102a990610a30565b60405180910390fd5b5f7f000000000000000000000000000000000000000000000000000000000000000073ffffffffffffffffffffffffffffffffffffffff16476040516102f790610a7b565b5f6040518083038185875af1925050503d805f8114610331576040519150601f19603f3d011682016040523d82523d5f602084013e610336565b606091505b505090508061037a576040517f08c379a000000000000000000000000000000000000000000000000000000000815260040161037190610ad9565b60405180910390fd5b50565b7f000000000000000000000000000000000000000000000000000000000000000081565b60025481565b6103ca604051806060016040528060218152602001610ecd60219139823361058f565b805f90816103d89190610cf1565b50600160025f8282546103eb9190610ded565b92505081905550600160035f3373ffffffffffffffffffffffffffffffffffffffff1673ffffffffffffffffffffffffffffffffffffffff1681526020019081526020015f205f82825461043f9190610ded565b925050819055505f34111561046c576001805f6101000a81548160ff021916908315150217905550610486565b5f60015f6101000a81548160ff0219169083151502179055505b3373ffffffffffffffffffffffffffffffffffffffff167f94cbd7e04dca26a7667654f6448b2ca0a40fec602118dc5fd8c82b9cf3c645ad825f3411346040516104d293929190610e20565b60405180910390a250565b6003602052805f5260405f205f915090505481565b60015f9054906101000a900460ff1681565b5f805461051090610b24565b80601f016020809104026020016040519081016040528092919081815260200182805461053c90610b24565b80156105875780601f1061055e57610100808354040283529160200191610587565b820191905f5260205f20905b81548152906001019060200180831161056a57829003601f168201915b505050505081565b6106298383836040516024016105a793929190610e5c565b6040516020818303038152906040527f95ed0195000000000000000000000000000000000000000000000000000000007bffffffffffffffffffffffffffffffffffffffffffffffffffffffff19166020820180517bffffffffffffffffffffffffffffffffffffffffffffffffffffffff838183161783525050505061062e565b505050565b6106458161063d610648610667565b63ffffffff16565b50565b5f6a636f6e736f6c652e6c6f6790505f80835160208501845afa505050565b610672819050919050565b61067a610e9f565b565b5f73ffffffffffffffffffffffffffffffffffffffff82169050919050565b5f6106a58261067c565b9050919050565b6106b58161069b565b82525050565b5f6020820190506106ce5f8301846106ac565b92915050565b5f819050919050565b6106e6816106d4565b82525050565b5f6020820190506106ff5f8301846106dd565b92915050565b5f604051905090565b5f80fd5b5f80fd5b5f80fd5b5f80fd5b5f601f19601f8301169050919050565b7f4e487b71000000000000000000000000000000000000000000000000000000005f52604160045260245ffd5b6107648261071e565b810181811067ffffffffffffffff821117156107835761078261072e565b5b80604052505050565b5f610795610705565b90506107a1828261075b565b919050565b5f67ffffffffffffffff8211156107c0576107bf61072e565b5b6107c98261071e565b9050602081019050919050565b828183375f83830152505050565b5f6107f66107f1846107a6565b61078c565b9050828152602081018484840111156108125761081161071a565b5b61081d8482856107d6565b509392505050565b5f82601f83011261083957610838610716565b5b81356108498482602086016107e4565b91505092915050565b5f602082840312156108675761086661070e565b5b5f82013567ffffffffffffffff81111561088457610883610712565b5b61089084828501610825565b91505092915050565b5f74ffffffffffffffffffffffffffffffffffffffffff82169050919050565b6108c281610899565b81146108cc575f80fd5b50565b5f813590506108dd816108b9565b6108e68161069b565b905092915050565b5f602082840312156109035761090261070e565b5b5f610910848285016108cf565b91505092915050565b5f8115159050919050565b61092d81610919565b82525050565b5f6020820190506109465f830184610924565b92915050565b5f81519050919050565b5f82825260208201905092915050565b5f5b83811015610983578082015181840152602081019050610968565b5f8484015250505050565b5f6109988261094c565b6109a28185610956565b93506109b2818560208601610966565b6109bb8161071e565b840191505092915050565b5f6020820190508181035f8301526109de818461098e565b905092915050565b7f4e6f7420746865204f776e6572000000000000000000000000000000000000005f82015250565b5f610a1a600d83610956565b9150610a25826109e6565b602082019050919050565b5f6020820190508181035f830152610a4781610a0e565b9050919050565b5f81905092915050565b50565b5f610a665f83610a4e565b9150610a7182610a58565b5f82019050919050565b5f610a8582610a5b565b9150819050919050565b7f4661696c656420746f2073656e642045746865720000000000000000000000005f82015250565b5f610ac3601483610956565b9150610ace82610a8f565b602082019050919050565b5f6020820190508181035f830152610af081610ab7565b9050919050565b7f4e487b71000000000000000000000000000000000000000000000000000000005f52602260045260245ffd5b5f6002820490506001821680610b3b57607f821691505b602082108103610b4e57610b4d610af7565b5b50919050565b5f819050815f5260205f209050919050565b5f6020601f8301049050919050565b5f82821b905092915050565b5f60088302610bb07fffffffffffffffffffffffffffffffffffffffffffffffffffffffffffffffff82610b75565b610bba8683610b75565b95508019841693508086168417925050509392505050565b5f819050919050565b5f610bf5610bf0610beb846106d4565b610bd2565b6106d4565b9050919050565b5f819050919050565b610c0e83610bdb565b610c22610c1a82610bfc565b848454610b81565b825550505050565b5f90565b610c36610c2a565b610c41818484610c05565b505050565b5b81811015610c6457610c595f82610c2e565b600181019050610c47565b5050565b601f821115610ca957610c7a81610b54565b610c8384610b66565b81016020851015610c92578190505b610ca6610c9e85610b66565b830182610c46565b50505b505050565b5f82821c905092915050565b5f610cc95f1984600802610cae565b1980831691505092915050565b5f610ce18383610cba565b9150826002028217905092915050565b610cfa8261094c565b67ffffffffffffffff811115610d1357610d1261072e565b5b610d1d8254610b24565b610d28828285610c68565b5f60209050601f831160018114610d59575f8415610d47578287015190505b610d518582610cd6565b865550610db8565b601f198416610d6786610b54565b5f5b82811015610d8e57848901518255600182019150602085019450602081019050610d69565b86831015610dab5784890151610da7601f891682610cba565b8355505b6001600288020188555050505b505050505050565b7f4e487b71000000000000000000000000000000000000000000000000000000005f52601160045260245ffd5b5f610df7826106d4565b9150610e02836106d4565b9250828201905080821115610e1a57610e19610dc0565b5b92915050565b5f6060820190508181035f830152610e38818661098e565b9050610e476020830185610924565b610e5460408301846106dd565b949350505050565b5f6060820190508181035f830152610e74818661098e565b90508181036020830152610e88818561098e565b9050610e9760408301846106ac565b949350505050565b7f4e487b71000000000000000000000000000000000000000000000000000000005f52605160045260245ffdfe53657474696e67206e6577206772656574696e6720272573272066726f6d202573a26474726f6e5822122003dc8e989b67e0d6908caa57162b8e8a3940555e8ddff4cfd973220339bcf36464736f6c63430008140033",
  "source": "//SPDX-License-Identifier: MIT\npragma solidity >=0.8.0 <0.9.0;\n\n// Useful for debugging. Remove when deploying to a live network.\nimport \"hardhat/console.sol\";\n\n// Use openzeppelin to inherit battle-tested implementations (ERC20, ERC721, etc)\n// import \"@openzeppelin/contracts/access/Ownable.sol\";\n\n/**\n * A smart contract that allows changing a state variable of the contract and tracking the changes\n * It also allows the owner to withdraw the Ether in the contract\n * @author BuidlGuidl\n */\ncontract YourContract {\n    // State Variables\n    address public immutable owner;\n    string public greeting = \"Building Unstoppable Apps!!!\";\n    bool public premium = false;\n    uint256 public totalCounter = 0;\n    mapping(address => uint) public userGreetingCounter;\n\n    // Events: a way to emit log statements from smart contract that can be listened to by external parties\n    event GreetingChange(address indexed greetingSetter, string newGreeting, bool premium, uint256 value);\n\n    // Constructor: Called once on contract deployment\n    // Check packages/hardhat/deploy/00_deploy_your_contract.ts\n    constructor(address _owner) {\n        owner = _owner;\n    }\n\n    // Modifier: used to define a set of rules that must be met before or after a function is executed\n    // Check the withdraw() function\n    modifier isOwner() {\n        // msg.sender: predefined variable that represents address of the account that called the current function\n        require(msg.sender == owner, \"Not the Owner\");\n        _;\n    }\n\n    /**\n     * Function that allows anyone to change the state variable \"greeting\" of the contract and increase the counters\n     *\n     * @param _newGreeting (string memory) - new greeting to save on the contract\n     */\n    function setGreeting(string memory _newGreeting) public payable {\n        // Print data to the hardhat chain console. Remove when deploying to a live network.\n        console.log(\"Setting new greeting '%s' from %s\", _newGreeting, msg.sender);\n\n        // Change state variables\n        greeting = _newGreeting;\n        totalCounter += 1;\n        userGreetingCounter[msg.sender] += 1;\n\n        // msg.value: built-in global variable that represents the amount of ether sent with the transaction\n        if (msg.value > 0) {\n            premium = true;\n        } else {\n            premium = false;\n        }\n\n        // emit: keyword used to trigger an event\n        emit GreetingChange(msg.sender, _newGreeting, msg.value > 0, msg.value);\n    }\n\n    /**\n     * Function that allows the owner to withdraw all the Ether in the contract\n     * The function can only be called by the owner of the contract as defined by the isOwner modifier\n     */\n    function withdraw() public isOwner {\n        (bool success, ) = owner.call{ value: address(this).balance }(\"\");\n        require(success, \"Failed to send Ether\");\n    }\n\n    /**\n     * Function that allows the contract to receive ETH\n     */\n    receive() external payable {}\n}\n",
  "sourcePath": "contracts/YourContract.sol",
  "compiler": {
    "name": "solc",
    "version": "0.8.20+commit.5f1834bc.Emscripten.clang"
  },
  "schemaVersion": "2.0.1",
  "updatedAt": "2025-07-17T13:01:20.054Z"
}