{
  "contractName": "TronCellManager",
  "abi": [
    {
      "inputs": [],
      "stateMutability": "nonpayable",
      "type": "constructor"
    },
    {
      "inputs": [],
      "name": "InvalidAmountOrPriceNotInitialized",
      "type": "error"
    },
    {
      "inputs": [
        {
          "internalType": "uint8",
          "name": "resourceType",
          "type": "uint8"
        }
      ],
      "name": "InvalidResourceType",
      "type": "error"
    },
    {
      "inputs": [],
      "name": "UnDelegateCallFailed",
      "type": "error"
    },
    {
      "anonymous": false,
      "inputs": [],
      "name": "AllUnFreezeV2Canceled",
      "type": "event"
    },
    {
      "anonymous": false,
      "inputs": [
        {
          "indexed": false,
          "internalType": "uint256",
          "name": "",
          "type": "uint256"
        },
        {
          "indexed": false,
          "internalType": "uint256",
          "name": "",
          "type": "uint256"
        }
      ],
      "name": "BalanceFreezedV2",
      "type": "event"
    },
    {
      "anonymous": false,
      "inputs": [
        {
          "indexed": false,
          "internalType": "uint256",
          "name": "",
          "type": "uint256"
        },
        {
          "indexed": false,
          "internalType": "uint256",
          "name": "",
          "type": "uint256"
        }
      ],
      "name": "BalanceUnfreezedV2",
      "type": "event"
    },
    {
      "anonymous": false,
      "inputs": [
        {
          "indexed": false,
          "internalType": "uint256",
          "name": "",
          "type": "uint256"
        }
      ],
      "name": "ExpireUnfreezeWithdrew",
      "type": "event"
    },
    {
      "anonymous": false,
      "inputs": [
        {
          "indexed": true,
          "internalType": "address",
          "name": "caller",
          "type": "address"
        },
        {
          "indexed": true,
          "internalType": "address",
          "name": "delegateTo",
          "type": "address"
        },
        {
          "indexed": false,
          "internalType": "uint256",
          "name": "amount",
          "type": "uint256"
        },
        {
          "indexed": false,
          "internalType": "uint8",
          "name": "resourceType",
          "type": "uint8"
        },
        {
          "indexed": false,
          "internalType": "uint256",
          "name": "timestamp",
          "type": "uint256"
        }
      ],
      "name": "ResourceDelegated",
      "type": "event"
    },
    {
      "anonymous": false,
      "inputs": [
        {
          "indexed": false,
          "internalType": "uint256",
          "name": "",
          "type": "uint256"
        }
      ],
      "name": "ResourcePerTRXEvent",
      "type": "event"
    },
    {
      "anonymous": false,
      "inputs": [
        {
          "indexed": true,
          "internalType": "address",
          "name": "caller",
          "type": "address"
        },
        {
          "indexed": true,
          "internalType": "address",
          "name": "delegateTo",
          "type": "address"
        },
        {
          "indexed": false,
          "internalType": "uint256",
          "name": "amount",
          "type": "uint256"
        },
        {
          "indexed": false,
          "internalType": "uint8",
          "name": "resourceType",
          "type": "uint8"
        },
        {
          "indexed": false,
          "internalType": "uint256",
          "name": "timestamp",
          "type": "uint256"
        }
      ],
      "name": "ResourceUnDelegated",
      "type": "event"
    },
    {
      "anonymous": false,
      "inputs": [
        {
          "indexed": true,
          "internalType": "address",
          "name": "from",
          "type": "address"
        },
        {
          "indexed": true,
          "internalType": "address",
          "name": "to",
          "type": "address"
        },
        {
          "indexed": false,
          "internalType": "uint256",
          "name": "amount",
          "type": "uint256"
        }
      ],
      "name": "TransferExecuted",
      "type": "event"
    },
    {
      "anonymous": false,
      "inputs": [
        {
          "indexed": true,
          "internalType": "address",
          "name": "recipient",
          "type": "address"
        },
        {
          "indexed": false,
          "internalType": "uint256",
          "name": "amount",
          "type": "uint256"
        }
      ],
      "name": "withdrawnBalance",
      "type": "event"
    },
    {
      "inputs": [],
      "name": "calculateEnergyPerTRX",
      "outputs": [
        {
          "internalType": "uint256",
          "name": "",
          "type": "uint256"
        }
      ],
      "stateMutability": "nonpayable",
      "type": "function"
    },
    {
      "inputs": [],
      "name": "calculateNetPerTRX",
      "outputs": [
        {
          "internalType": "uint256",
          "name": "",
          "type": "uint256"
        }
      ],
      "stateMutability": "nonpayable",
      "type": "function"
    },
    {
      "inputs": [],
      "name": "cancelUnfreeze",
      "outputs": [],
      "stateMutability": "nonpayable",
      "type": "function"
    },
    {
      "inputs": [
        {
          "internalType": "address",
          "name": "_newOwnerAddress",
          "type": "address"
        }
      ],
      "name": "changeOwner",
      "outputs": [],
      "stateMutability": "nonpayable",
      "type": "function"
    },
    {
      "inputs": [
        {
          "internalType": "uint256",
          "name": "amountInRes",
          "type": "uint256"
        },
        {
          "internalType": "uint8",
          "name": "resourceType",
          "type": "uint8"
        },
        {
          "internalType": "address payable",
          "name": "delegateTo",
          "type": "address"
        }
      ],
      "name": "delegateResource",
      "outputs": [],
      "stateMutability": "nonpayable",
      "type": "function"
    },
    {
      "inputs": [],
      "name": "energyPerTRX",
      "outputs": [
        {
          "internalType": "uint256",
          "name": "",
          "type": "uint256"
        }
      ],
      "stateMutability": "view",
      "type": "function"
    },
    {
      "inputs": [
        {
          "internalType": "uint256",
          "name": "amount",
          "type": "uint256"
        },
        {
          "internalType": "uint8",
          "name": "resourceType",
          "type": "uint8"
        }
      ],
      "name": "freezeBalance",
      "outputs": [],
      "stateMutability": "nonpayable",
      "type": "function"
    },
    {
      "inputs": [
        {
          "internalType": "address",
          "name": "to",
          "type": "address"
        },
        {
          "internalType": "uint8",
          "name": "resourceType",
          "type": "uint8"
        }
      ],
      "name": "getResourceUsage",
      "outputs": [
        {
          "internalType": "uint256",
          "name": "",
          "type": "uint256"
        },
        {
          "internalType": "uint256",
          "name": "",
          "type": "uint256"
        }
      ],
      "stateMutability": "view",
      "type": "function"
    },
    {
      "inputs": [
        {
          "internalType": "address",
          "name": "to",
          "type": "address"
        },
        {
          "internalType": "address",
          "name": "from",
          "type": "address"
        },
        {
          "internalType": "uint8",
          "name": "resourceType",
          "type": "uint8"
        }
      ],
      "name": "getResourceV2",
      "outputs": [
        {
          "internalType": "uint256",
          "name": "",
          "type": "uint256"
        }
      ],
      "stateMutability": "view",
      "type": "function"
    },
    {
      "inputs": [
        {
          "internalType": "address",
          "name": "to",
          "type": "address"
        },
        {
          "internalType": "uint8",
          "name": "resourceType",
          "type": "uint8"
        }
      ],
      "name": "getTotalAcquiredResource",
      "outputs": [
        {
          "internalType": "uint256",
          "name": "",
          "type": "uint256"
        }
      ],
      "stateMutability": "view",
      "type": "function"
    },
    {
      "inputs": [
        {
          "internalType": "address",
          "name": "to",
          "type": "address"
        },
        {
          "internalType": "uint8",
          "name": "resourceType",
          "type": "uint8"
        }
      ],
      "name": "getTotalDelegatedResource",
      "outputs": [
        {
          "internalType": "uint256",
          "name": "",
          "type": "uint256"
        }
      ],
      "stateMutability": "view",
      "type": "function"
    },
    {
      "inputs": [
        {
          "internalType": "address",
          "name": "to",
          "type": "address"
        },
        {
          "internalType": "uint8",
          "name": "resourceType",
          "type": "uint8"
        }
      ],
      "name": "getTotalResource",
      "outputs": [
        {
          "internalType": "uint256",
          "name": "",
          "type": "uint256"
        }
      ],
      "stateMutability": "view",
      "type": "function"
    },
    {
      "inputs": [],
      "name": "netPerTRX",
      "outputs": [
        {
          "internalType": "uint256",
          "name": "",
          "type": "uint256"
        }
      ],
      "stateMutability": "view",
      "type": "function"
    },
    {
      "inputs": [],
      "name": "queryRewardBalance",
      "outputs": [
        {
          "internalType": "uint256",
          "name": "",
          "type": "uint256"
        }
      ],
      "stateMutability": "view",
      "type": "function"
    },
    {
      "inputs": [
        {
          "internalType": "address payable",
          "name": "delegateTo",
          "type": "address"
        }
      ],
      "name": "quickEnergyDelegation",
      "outputs": [],
      "stateMutability": "nonpayable",
      "type": "function"
    },
    {
      "inputs": [
        {
          "internalType": "uint256",
          "name": "amount",
          "type": "uint256"
        },
        {
          "internalType": "uint8",
          "name": "resourceType",
          "type": "uint8"
        },
        {
          "internalType": "address payable",
          "name": "delegateTo",
          "type": "address"
        }
      ],
      "name": "unDelegateResource",
      "outputs": [],
      "stateMutability": "nonpayable",
      "type": "function"
    },
    {
      "inputs": [
        {
          "internalType": "uint256",
          "name": "amount",
          "type": "uint256"
        },
        {
          "internalType": "uint8",
          "name": "resourceType",
          "type": "uint8"
        }
      ],
      "name": "unfreezeBalance",
      "outputs": [],
      "stateMutability": "nonpayable",
      "type": "function"
    },
    {
      "inputs": [
        {
          "internalType": "address[]",
          "name": "srList",
          "type": "address[]"
        },
        {
          "internalType": "uint256[]",
          "name": "tpList",
          "type": "uint256[]"
        }
      ],
      "name": "voteWitness",
      "outputs": [],
      "stateMutability": "nonpayable",
      "type": "function"
    },
    {
      "inputs": [
        {
          "internalType": "uint256",
          "name": "amount",
          "type": "uint256"
        },
        {
          "internalType": "address payable",
          "name": "_address",
          "type": "address"
        }
      ],
      "name": "withdrawBalance",
      "outputs": [],
      "stateMutability": "nonpayable",
      "type": "function"
    },
    {
      "inputs": [],
      "name": "withdrawExpireUnfreeze",
      "outputs": [],
      "stateMutability": "nonpayable",
      "type": "function"
    },
    {
      "inputs": [],
      "name": "withdrawReward",
      "outputs": [
        {
          "internalType": "uint256",
          "name": "",
          "type": "uint256"
        }
      ],
      "stateMutability": "nonpayable",
      "type": "function"
    }
  ],
  "bytecode": "0x608060405234801561000f575f80fd5b50d3801561001b575f80fd5b50d28015610027575f80fd5b50335f806101000a81548173ffffffffffffffffffffffffffffffffffffffff021916908373ffffffffffffffffffffffffffffffffffffffff16021790555061198b806100745f395ff3fe608060405234801561000f575f80fd5b50d3801561001b575f80fd5b50d28015610027575f80fd5b506004361061014d575f3560e01c80639e4b1aab116100ce578063c2bf689011610092578063c2bf689014610328578063c885bc5814610344578063d27dd94d14610362578063df12677114610392578063e30ef0e6146103ae578063eb8f65e0146103cc5761014d565b80639e4b1aab14610298578063a222588b146102b4578063a465bb19146102d2578063a6f9dae1146102dc578063bf7611ef146102f85761014d565b80636565153111610115578063656515311461021c578063700c46231461023857806379e81f39146102565780638427020b14610272578063947f11461461028e5761014d565b80632e20c4fe146101515780633affede31461018157806342f1cd641461019f578063589a85d6146101d0578063627dc100146101ec575b5f80fd5b61016b6004803603810190610166919061120c565b6103ea565b6040516101789190611262565b60405180910390f35b6101896104b6565b6040516101969190611262565b60405180910390f35b6101b960048036038101906101b4919061120c565b6104bc565b6040516101c792919061127b565b60405180910390f35b6101ea60048036038101906101e591906112e8565b61053c565b005b6102066004803603810190610201919061120c565b6105bd565b6040516102139190611262565b60405180910390f35b6102366004803603810190610231919061133d565b610689565b005b6102406107b6565b60405161024d9190611262565b60405180910390f35b610270600480360381019061026b919061138d565b6108c6565b005b61028c600480360381019061028791906113cb565b610a08565b005b610296610ab4565b005b6102b260048036038101906102ad91906113cb565b610ae4565b005b6102bc610b90565b6040516102c99190611262565b60405180910390f35b6102da610ca0565b005b6102f660048036038101906102f19190611409565b610cde565b005b610312600480360381019061030d919061120c565b610dad565b60405161031f9190611262565b60405180910390f35b610342600480360381019061033d919061133d565b610e20565b005b61034c610f84565b6040516103599190611262565b60405180910390f35b61037c60048036038101906103779190611434565b610f8b565b6040516103899190611262565b60405180910390f35b6103ac60048036038101906103a7919061153a565b61105a565b005b6103b66110f7565b6040516103c39190611262565b60405180910390f35b6103d4611143565b6040516103e19190611262565b60405180910390f35b5f60018260ff161415801561040257505f8260ff1614155b1561044457816040517f5d42cbc800000000000000000000000000000000000000000000000000000000815260040161043b91906115c7565b60405180910390fd5b8273ffffffffffffffffffffffffffffffffffffffff1663010000149083604051610470929190611628565b602060405180830381855afa15801561048b573d5f803e3d5ffd5b5050506040513d601f19601f820116820180604052508101906104ae9190611663565b905092915050565b60025481565b5f805f808573ffffffffffffffffffffffffffffffffffffffff16630100001290866040516104ec929190611628565b6040805180830381855afa158015610506573d5f803e3d5ffd5b5050506040513d601f19601f82011682018060405250810190610529919061168e565b9150915081819350935050509250929050565b61054b624c4b40600183610e20565b8073ffffffffffffffffffffffffffffffffffffffff163373ffffffffffffffffffffffffffffffffffffffff167f97253f3b991e719c6612a5b32240a5e91bb0f00d70ee0ae9c77d911b80a2274c640f5de814006001426040516105b29392919061173e565b60405180910390a350565b5f808260ff16141580156105d5575060018260ff1614155b1561061757816040517f5d42cbc800000000000000000000000000000000000000000000000000000000815260040161060e91906115c7565b60405180910390fd5b8273ffffffffffffffffffffffffffffffffffffffff1663010000139083604051610643929190611628565b602060405180830381855afa15801561065e573d5f803e3d5ffd5b5050506040513d601f19601f820116820180604052508101906106819190611663565b905092915050565b5f83036106c2576040517f6559747300000000000000000000000000000000000000000000000000000000815260040160405180910390fd5b5f8260ff16141580156106d9575060018260ff1614155b1561071b57816040517f5d42cbc800000000000000000000000000000000000000000000000000000000815260040161071291906115c7565b60405180910390fd5b8073ffffffffffffffffffffffffffffffffffffffff16838360ff16df158015610747573d5f803e3d5ffd5b508073ffffffffffffffffffffffffffffffffffffffff163373ffffffffffffffffffffffffffffffffffffffff167f3cc20137b95bba5a380fbb2932c5f7db145f076e363b0e0ed88c8b3b3887c0428585426040516107a993929190611773565b60405180910390a3505050565b5f806004604051818152602081602083630100000b5afa6107dc576040513d5f823e3d81fd5b6020810160405260203d146107ef575f80fd5b8051925067ffffffffffffffff83168314610808575f80fd5b5050620f42405f6003604051818152602081602083630100000b5afa610833576040513d5f823e3d81fd5b6020810160405260203d14610846575f80fd5b8051925067ffffffffffffffff8316831461085f575f80fd5b505061086b91906117e8565b6108759190611851565b67ffffffffffffffff166001819055507f86369db0f1d260e2e77f2221d7a3071d5d00a14f1d6425ed3acbe69964490e2c6001546040516108b69190611262565b60405180910390a1600154905090565b5f8054906101000a900473ffffffffffffffffffffffffffffffffffffffff1673ffffffffffffffffffffffffffffffffffffffff163373ffffffffffffffffffffffffffffffffffffffff1614610953576040517f08c379a000000000000000000000000000000000000000000000000000000000815260040161094a906118db565b60405180910390fd5b8073ffffffffffffffffffffffffffffffffffffffff166108fc8390811502906040515f60405180830381858888f19350505050158015610996573d5f803e3d5ffd5b505f8054906101000a900473ffffffffffffffffffffffffffffffffffffffff1673ffffffffffffffffffffffffffffffffffffffff167f629e108cea8299860f95cd524466aa3c6f0d994c4187e2130ea29378f2cf9c88836040516109fc9190611262565b60405180910390a25050565b5f8160ff1614158015610a1f575060018160ff1614155b15610a6157806040517f5d42cbc8000000000000000000000000000000000000000000000000000000008152600401610a5891906115c7565b60405180910390fd5b818160ff16da158015610a76573d5f803e3d5ffd5b507fbf7317ad9f1647b3d3dc5d9016094657f22c3a7751cbac94449eb4de8ef406548282604051610aa89291906118f9565b60405180910390a15050565bdc507f5afb00bc611f1bef25ca8e299ec167f23c606d8834591dc68ec349175a406cee60405160405180910390a1565b5f8160ff1614158015610afb575060018160ff1614155b15610b3d57806040517f5d42cbc8000000000000000000000000000000000000000000000000000000008152600401610b3491906115c7565b60405180910390fd5b818160ff16db158015610b52573d5f803e3d5ffd5b507f6237f927ab9987076d9d67c912024d16e09c41605ce53abe0983e1dbc7fe510b8282604051610b849291906118f9565b60405180910390a15050565b5f806002604051818152602081602083630100000b5afa610bb6576040513d5f823e3d81fd5b6020810160405260203d14610bc9575f80fd5b8051925067ffffffffffffffff83168314610be2575f80fd5b5050620f42405f6001604051818152602081602083630100000b5afa610c0d576040513d5f823e3d81fd5b6020810160405260203d14610c20575f80fd5b8051925067ffffffffffffffff83168314610c39575f80fd5b5050610c4591906117e8565b610c4f9190611851565b67ffffffffffffffff166002819055507f86369db0f1d260e2e77f2221d7a3071d5d00a14f1d6425ed3acbe69964490e2c600254604051610c909190611262565b60405180910390a1600254905090565b5fdd90507f74d0130179b82463b28308f856238633a71fc38955c9f141e206305810805ab381604051610cd39190611262565b60405180910390a150565b5f8054906101000a900473ffffffffffffffffffffffffffffffffffffffff1673ffffffffffffffffffffffffffffffffffffffff163373ffffffffffffffffffffffffffffffffffffffff1614610d6b576040517f08c379a0000000000000000000000000000000000000000000000000000000008152600401610d62906118db565b60405180910390fd5b805f806101000a81548173ffffffffffffffffffffffffffffffffffffffff021916908373ffffffffffffffffffffffffffffffffffffffff16021790555050565b5f8273ffffffffffffffffffffffffffffffffffffffff1663010000159083604051610dda929190611628565b602060405180830381855afa158015610df5573d5f803e3d5ffd5b5050506040513d601f19601f82011682018060405250810190610e189190611663565b905092915050565b5f83148015610e3057505f600154145b8015610e3d57505f600254145b15610e74576040517f6559747300000000000000000000000000000000000000000000000000000000815260040160405180910390fd5b60018260ff161115610ebd57816040517f5d42cbc8000000000000000000000000000000000000000000000000000000008152600401610eb491906115c7565b60405180910390fd5b5f60018360ff1603610ed55760015484029050610ee8565b5f8360ff1603610ee757600254840290505b5b8173ffffffffffffffffffffffffffffffffffffffff16818460ff16de158015610f14573d5f803e3d5ffd5b508173ffffffffffffffffffffffffffffffffffffffff163373ffffffffffffffffffffffffffffffffffffffff167f97253f3b991e719c6612a5b32240a5e91bb0f00d70ee0ae9c77d911b80a2274c868642604051610f7693929190611773565b60405180910390a350505050565b5fd9905090565b5f808260ff1614158015610fa3575060018260ff1614155b15610fe557816040517f5d42cbc8000000000000000000000000000000000000000000000000000000008152600401610fdc91906115c7565b60405180910390fd5b8373ffffffffffffffffffffffffffffffffffffffff16630100001090848460405161101393929190611920565b602060405180830381855afa15801561102e573d5f803e3d5ffd5b5050506040513d601f19601f820116820180604052508101906110519190611663565b90509392505050565b8383808060200260200160405190810160405280939291908181526020018383602002808284375f81840152601f19601f8201169050808301925050505050505080518383808060200260200160405190810160405280939291908181526020018383602002808284375f81840152601f19601f820116905080830192505050505050508051d81580156110f0573d5f803e3d5ffd5b5050505050565b5f6301000005604051602060405180830381855afa15801561111b573d5f803e3d5ffd5b5050506040513d601f19601f8201168201806040525081019061113e9190611663565b905090565b60015481565b5f80fd5b5f80fd5b5f74ffffffffffffffffffffffffffffffffffffffffff82169050919050565b61117a81611151565b8114611184575f80fd5b50565b5f73ffffffffffffffffffffffffffffffffffffffff82169050919050565b5f6111b082611187565b9050919050565b5f813590506111c581611171565b6111ce816111a6565b905092915050565b5f60ff82169050919050565b6111eb816111d6565b81146111f5575f80fd5b50565b5f81359050611206816111e2565b92915050565b5f806040838503121561122257611221611149565b5b5f61122f858286016111b7565b9250506020611240858286016111f8565b9150509250929050565b5f819050919050565b61125c8161124a565b82525050565b5f6020820190506112755f830184611253565b92915050565b5f60408201905061128e5f830185611253565b61129b6020830184611253565b9392505050565b6112ab81611151565b81146112b5575f80fd5b50565b5f6112c282611187565b9050919050565b5f813590506112d7816112a2565b6112e0816112b8565b905092915050565b5f602082840312156112fd576112fc611149565b5b5f61130a848285016112c9565b91505092915050565b61131c8161124a565b8114611326575f80fd5b50565b5f8135905061133781611313565b92915050565b5f805f6060848603121561135457611353611149565b5b5f61136186828701611329565b9350506020611372868287016111f8565b9250506040611383868287016112c9565b9150509250925092565b5f80604083850312156113a3576113a2611149565b5b5f6113b085828601611329565b92505060206113c1858286016112c9565b9150509250929050565b5f80604083850312156113e1576113e0611149565b5b5f6113ee85828601611329565b92505060206113ff858286016111f8565b9150509250929050565b5f6020828403121561141e5761141d611149565b5b5f61142b848285016111b7565b91505092915050565b5f805f6060848603121561144b5761144a611149565b5b5f611458868287016111b7565b9350506020611469868287016111b7565b925050604061147a868287016111f8565b9150509250925092565b5f80fd5b5f80fd5b5f80fd5b5f8083601f8401126114a5576114a4611484565b5b8235905067ffffffffffffffff8111156114c2576114c1611488565b5b6020830191508360208202830111156114de576114dd61148c565b5b9250929050565b5f8083601f8401126114fa576114f9611484565b5b8235905067ffffffffffffffff81111561151757611516611488565b5b6020830191508360208202830111156115335761153261148c565b5b9250929050565b5f805f806040858703121561155257611551611149565b5b5f85013567ffffffffffffffff81111561156f5761156e61114d565b5b61157b87828801611490565b9450945050602085013567ffffffffffffffff81111561159e5761159d61114d565b5b6115aa878288016114e5565b925092505092959194509250565b6115c1816111d6565b82525050565b5f6020820190506115da5f8301846115b8565b92915050565b6115e9816111a6565b82525050565b5f819050919050565b5f61161261160d611608846111d6565b6115ef565b61124a565b9050919050565b611622816115f8565b82525050565b5f60408201905061163b5f8301856115e0565b6116486020830184611619565b9392505050565b5f8151905061165d81611313565b92915050565b5f6020828403121561167857611677611149565b5b5f6116858482850161164f565b91505092915050565b5f80604083850312156116a4576116a3611149565b5b5f6116b18582860161164f565b92505060206116c28582860161164f565b9150509250929050565b5f819050919050565b5f6116ef6116ea6116e5846116cc565b6115ef565b61124a565b9050919050565b6116ff816116d5565b82525050565b5f819050919050565b5f61172861172361171e84611705565b6115ef565b6111d6565b9050919050565b6117388161170e565b82525050565b5f6060820190506117515f8301866116f6565b61175e602083018561172f565b61176b6040830184611253565b949350505050565b5f6060820190506117865f830186611253565b61179360208301856115b8565b6117a06040830184611253565b949350505050565b5f67ffffffffffffffff82169050919050565b7f4e487b71000000000000000000000000000000000000000000000000000000005f52601160045260245ffd5b5f6117f2826117a8565b91506117fd836117a8565b925082820261180b816117a8565b915080821461181d5761181c6117bb565b5b5092915050565b7f4e487b71000000000000000000000000000000000000000000000000000000005f52601260045260245ffd5b5f61185b826117a8565b9150611866836117a8565b92508261187657611875611824565b5b828204905092915050565b5f82825260208201905092915050565b7f4f6e6c79206f776e6572206d61792063616c6c2066756e6374696f6e000000005f82015250565b5f6118c5601c83611881565b91506118d082611891565b602082019050919050565b5f6020820190508181035f8301526118f2816118b9565b9050919050565b5f60408201905061190c5f830185611253565b6119196020830184611619565b9392505050565b5f6060820190506119335f8301866115e0565b61194060208301856115e0565b61194d6040830184611619565b94935050505056fea26474726f6e58221220fc30c85d441d79f672a6475cac853937a15f73432b89e5fdb33fb41a1922c9ac64736f6c63430008170033",
  "source": "//SPDX-License-Identifier: MIT\npragma solidity 0.8.23;\n\n/*\nTRON  TRON Cell Manager Contract (TCMC) requirements:\n\nGoal: \n1. Create a SC in such a way that developer can build a TRON Resources delegation automation platform, flash rentals trough external TRON EOAs should be enabled as well\n\nUsual Workflow:\n\n\nBackground:\n\n\nIdentified Use Cases:\n\n1. TRON Energy Pool/Cell/Battery \n\nContract Requirements:\n2. Only Owner can change owner address --> Done\n4. Only Owner must be able to withdraw TRX -> \n5. Optionally Add a white list function for users to avoid smart contract abuse beyond the owner's platform. -> Pending\n6. Implement Error handling, feedback and logging for all functions --> Pending\n7. Create Smart contract test cases --> Pending\n8. Only white-listed users can delegate resources -->\n9. White-listed users have a configurable max resource they can access per day (consider block number per day here)\n\nTO-DO:\n\n*/\n\ncontract TronCellManager {\n    address internal owner;\n    uint256 public energyPerTRX;\n    uint256 public netPerTRX;\n\n    event TransferExecuted(address indexed from, address indexed to, uint256 amount);\n    error InvalidResourceType(uint8 resourceType);\n    error InvalidAmountOrPriceNotInitialized();\n    error UnDelegateCallFailed();\n\n    event BalanceFreezedV2(uint, uint);\n    event ResourcePerTRXEvent(uint256);\n    event BalanceUnfreezedV2(uint, uint);\n    event AllUnFreezeV2Canceled();\n    event ExpireUnfreezeWithdrew(uint);\n    event ResourceDelegated(\n        address indexed caller,\n        address indexed delegateTo,\n        uint256 amount,\n        uint8 resourceType,\n        uint256 timestamp\n    );\n    event ResourceUnDelegated(\n        address indexed caller,\n        address indexed delegateTo,\n        uint256 amount,\n        uint8 resourceType,\n        uint256 timestamp\n    );\n    event withdrawnBalance(address indexed recipient, uint amount);\n\n    modifier onlyOwner() {\n        require(msg.sender == owner, \"Only owner may call function\");\n        _;\n    }\n\n    constructor() {\n        owner = payable(msg.sender);\n    }\n\n    /**\n     * @notice Query the amount of resources share of a specific resourceType delegated by from to address\n     * @param to delegated resource to address\n     * @param from resource owner\n     * @param resourceType Energy: 1 , Bandwidth: 0\n     */\n    function getResourceV2(address to, address from, uint8 resourceType) public view returns (uint) {\n        if (resourceType != 0 && resourceType != 1) revert InvalidResourceType(resourceType);\n        return to.resourceV2(from, resourceType);\n    }\n\n    /**\n     * @notice Delegate Resource in Resource units\n     * @param amountInRes Amount of resource to be delegated\n     * @param resourceType Energy: 1  Bandwidth: 0\n     * @param delegateTo to address\n     */\n    function delegateResource(\n        uint amountInRes,\n        uint8 resourceType, //Energy: 1 , Bandwidth: 0\n        address payable delegateTo\n    ) public {\n        if (amountInRes == 0 && energyPerTRX == 0 && netPerTRX == 0) revert InvalidAmountOrPriceNotInitialized();\n        if (resourceType > 1) revert InvalidResourceType(resourceType); //If Wrong input by user revert\n        uint amountInTRX;\n        unchecked {\n            if (resourceType == 1) {\n                amountInTRX = amountInRes * energyPerTRX;\n            } else if (resourceType == 0) {\n                amountInTRX = amountInRes * netPerTRX;\n            }\n        }\n\n        delegateTo.delegateResource(amountInTRX, resourceType);\n        emit ResourceDelegated(msg.sender, delegateTo, amountInRes, resourceType, block.timestamp);\n    }\n\n    function quickEnergyDelegation(address payable delegateTo) external {\n        delegateResource(5000000, 1, delegateTo);\n        emit ResourceDelegated(msg.sender, delegateTo, 66000000000, 1, block.timestamp);\n    }\n\n    function unDelegateResource(\n        uint amount,\n        uint8 resourceType, //Energy: 1 , Bandwidth: 0\n        address payable delegateTo\n    ) external {\n        if (amount == 0) revert InvalidAmountOrPriceNotInitialized();\n        if (resourceType != 0 && resourceType != 1) revert InvalidResourceType(resourceType);\n        delegateTo.unDelegateResource(amount, resourceType);\n        emit ResourceUnDelegated(msg.sender, delegateTo, amount, resourceType, block.timestamp);\n    }\n\n    // Stake TRX to obtain Voting power and Resources (Either Energy: 1 or Bandwidth:0)\n    function freezeBalance(\n        uint amount,\n        uint8 resourceType //Energy: 1 , Bandwidth: 0\n    ) external {\n        if (resourceType != 0 && resourceType != 1) revert InvalidResourceType(resourceType);\n        freezebalancev2(amount, resourceType);\n        emit BalanceFreezedV2(amount, resourceType);\n    }\n\n    // unstake TRX\n    function unfreezeBalance(uint amount, uint8 resourceType) external {\n        if (resourceType != 0 && resourceType != 1) revert InvalidResourceType(resourceType);\n        unfreezebalancev2(amount, resourceType);\n        emit BalanceUnfreezedV2(amount, resourceType);\n    }\n\n    // Function to withdraw TRX (native TRON currency) from the wallet to a specified address\n    function withdrawBalance(\n        uint amount, // Amount of TRX to withdraw\n        address payable _address // Recipient's address\n    ) external onlyOwner {\n        // Only the owner can call this function\n        _address.transfer(amount);\n        emit withdrawnBalance(owner, amount);\n    }\n\n    /**\n     * @notice  Get Chain parameters , remove to reduce deployment cost for now\n     */\n    /*function getChainParameters()\n        public\n        view\n        returns (uint, uint, uint, uint, uint)\n    {\n        return (\n            chain.totalNetLimit,\n            chain.totalNetWeight,\n            chain.totalEnergyCurrentLimit,\n            chain.totalEnergyWeight,\n            chain.unfreezeDelayDays\n        );\n    }*/\n\n    /**\n     * @notice  Calculate the Energy per TRX ratio considering current Network conditions\n     */\n    function calculateEnergyPerTRX() public returns (uint) {\n        energyPerTRX = (chain.totalEnergyCurrentLimit * 1_000_000) / chain.totalEnergyWeight;\n        emit ResourcePerTRXEvent(energyPerTRX);\n        return (energyPerTRX);\n    }\n\n    /**\n     * @notice  Calculate the Bandwidth per TRX ratio considering current Network conditions\n     */\n    function calculateNetPerTRX() public returns (uint) {\n        netPerTRX = (chain.totalNetLimit * 1_000_000) / chain.totalNetWeight;\n        emit ResourcePerTRXEvent(netPerTRX);\n        return (netPerTRX);\n    }\n\n    /**\n     * @notice cancel all pending unstaking requests. Before calling selfdestruct(address) to destroy the contract, should cancel all pending unstaking requests, otherwise, the contract cannot be destroyed.\n     */\n    function cancelUnfreeze() external {\n        cancelallunfreezev2();\n        emit AllUnFreezeV2Canceled();\n    }\n\n    /**\n     * @notice withdraw unfrozen TRX, the user can call this API to withdraw funds to account after executing unfreezeBalanceV2 transaction and waiting N days, N is a network parameter.\n     */\n    function withdrawExpireUnfreeze() external {\n        uint256 amount = withdrawexpireunfreeze();\n        emit ExpireUnfreezeWithdrew(amount);\n    }\n\n    /**\n     * @notice Query the usage of a specific resourceType of resources for address\n     * @param to Address to be analyzed\n     * @param resourceType Energy: 1 , Bandwidth: 0\n     */\n    function getResourceUsage(\n        address to,\n        uint8 resourceType //Energy: 1 , Bandwidth: 0\n    ) public view returns (uint, uint) {\n        (uint used, uint restoreTime) = to.resourceUsage(resourceType);\n        return (used, restoreTime);\n    }\n\n    /**\n     * @notice Query the total available resource share of a specific resourceType for address\n     * @param to Address to be analyzed\n     * @param resourceType Energy: 1 , Bandwidth: 0\n     */\n    function getTotalResource(\n        address to,\n        uint8 resourceType //Energy: 1 , Bandwidth: 0\n    ) public view returns (uint) {\n        if (resourceType != 0 && resourceType != 1) revert InvalidResourceType(resourceType);\n        return to.totalResource(resourceType);\n    }\n\n    /**\n     * @notice Query delegated resources share of a specific resourceType for address\n     * @param to Address to be analyzed\n     * @param resourceType Energy: 1 , Bandwidth: 0\n     */\n    function getTotalDelegatedResource(address to, uint8 resourceType) public view returns (uint) {\n        if (resourceType != 1 && resourceType != 0) revert InvalidResourceType(resourceType);\n        return to.totalDelegatedResource(resourceType);\n    }\n\n    /**\n     * @notice Query the acquired resource share of a specific resourceType for address\n     * @param to Address to be analyzed\n     * @param resourceType Energy: 1 , Bandwidth: 0\n     * @return The amount of acquired resource share, the unit is sun\n     */\n    function getTotalAcquiredResource(address to, uint8 resourceType) public view returns (uint) {\n        return to.totalAcquiredResource(resourceType);\n    }\n\n    /**\n     * @notice Vote witness in srList array and every witness will get correspond TP in tpList array\n     * @param srList SR List\n     * @param tpList Number of votes for super representatives in srList\n     */\n    function voteWitness(address[] calldata srList, uint[] calldata tpList) external {\n        vote(srList, tpList);\n    }\n\n    /**\n     * @notice  Withdraw all allowance and reward to contract balance\n     * @return Actually withdrawn balance of allowance and reward. unit is sun.\n     */\n    function withdrawReward() external returns (uint) {\n        return withdrawreward();\n    }\n\n    /**\n     * @notice  Query all allowance and reward of contract account\n     * @return Sum of allowance and reward of contradct account\n     */\n    function queryRewardBalance() external view returns (uint) {\n        return rewardBalance();\n    }\n\n    function changeOwner(address _newOwnerAddress) external onlyOwner {\n        owner = _newOwnerAddress;\n    }\n}\n",
  "sourcePath": "contracts/TronCellManager.sol",
  "compiler": {
    "name": "solc",
    "version": "0.8.23+commit.8ed33446.Emscripten.clang"
  },
  "schemaVersion": "2.0.1",
  "updatedAt": "2025-08-08T22:29:35.927Z"
}